:100000000C94E2000C9434070C940D070C940A0134
:100010000C940A010C940A010C940A010C940A0134
:100020000C940A010C940A010C940A010C940A0124
:100030000C940A010C940A010C940A010C940A0114
:100040000C94C3060C940A010C9481070C945B0772
:100050000C940A010C940A010C940A010C940A01F4
:100060000C94B3070C940A01005EBCE2613FDD838F
:10007000C29C7E20A3FD1F419DC3217FFCA2401E88
:100080005F01E3BD3E6082DC237D9FC1421CFEA078
:10009000E1BF5D0380DE3C62BEE0025CDF81633D68
:1000A0007C22C09E1D43A1FF4618FAA427799BC558
:1000B00084DA3866E5BB5907DB856739BAE4065848
:1000C0001947A5FB7826C49A653BD987045AB8E638
:1000D000A7F91B45C6987A24F8A6441A99C7257B28
:1000E0003A6486D85B05E7B98CD2306EEDB3510F18
:1000F0004E10F2AC2F7193CD114FADF3702ECC9208
:10010000D38D6F31B2EC0E50AFF1134DCE90722CF7
:100110006D33D18F0C52B0EE326C8ED0530DEFB1E7
:10012000F0AE4C1291CF2D73CA947628ABF51749D7
:100130000856B4EA6937D58B5709EBB536688AD4C7
:1001400095CB2977F4AA4816E9B7550B88D6346AB7
:100150002B7597C94A14F6A8742AC896154BA9F7A7
:10016000B6E80A54D7896B35000000002400270048
:100170002A0000000000250028002B0000000008D5
:10018000000201000003040700000000000000005E
:1001900000000000230026002900040404040404D5
:1001A0000404020202020202030303030303010226
:1001B00004081020408001020408102001020408F5
:1001C0001020760F11241FBECFEFD8E0DEBFCDBFC9
:1001D00012E0A0E0B1E0E0E3F5E202C005900D928C
:1001E000A03DB107D9F727E0A0EDB2E001C01D9214
:1001F000AC3BB207E1F710E0C2EED0E004C02197BB
:10020000FE010E944810C13ED107C9F70E94700C40
:100210000C9496120C940000E091F206F091F30613
:10022000309729F01092EB061092EA06099408958F
:10023000CF93DF93AC01E091F406F091F50630978F
:10024000F1F09091ED068091EC069817C0F090E0E7
:10025000292F30E02617370754F4D901A953B94F95
:10026000EA01C20FD31F88818C939F5FF1CF109258
:10027000ED066093EC06CB01DF91CF910994DF91FD
:10028000CF9108950895CF92DF92EF92FF920F934E
:100290001F93CF93DF936C017A018B01C0E0D0E014
:1002A000CE15DF0589F0D8016D918D01D601ED9154
:1002B000FC910190F081E02DC6010995892B11F484
:1002C0007E0102C02196ECCFC701DF91CF911F9133
:1002D0000F91FF90EF90DF90CF900895FC01918DEA
:1002E000828D981761F0828DDF01A80FB11D5D9698
:1002F0008C91928D9F5F9F73928F90E008958FEF06
:100300009FEF0895FC01918D828D981731F0828DB9
:10031000E80FF11D858D90E008958FEF9FEF089510
:10032000FC01918D228D892F90E0805C9F4F821B74
:1003300091098F739927089585E097E00E949001B5
:1003400021E0892B09F420E0822F0895FC01848D9F
:10035000DF01A80FB11DA35ABF4F2C91848D90E0EF
:1003600001968F739927848FA689B7892C93A089CA
:10037000B1898C9180648C93938D848D981306C081
:100380000288F389E02D80818F7D80830895EF922C
:10039000FF920F931F93CF93DF93EC0181E0888F3F
:1003A0009B8D8C8D981305C0E889F989808185FD26
:1003B00024C0F62E0B8D10E00F5F1F4F0F73112717
:1003C000E02E8C8DE8120CC00FB607FCFACFE8893E
:1003D000F989808185FFF5CFCE010E94A601F1CF7A
:1003E0008B8DFE01E80FF11DE35AFF4FF0820B8F5A
:1003F000EA89FB898081806207C0EE89FF8960837A
:10040000E889F98980818064808381E090E0DF91D0
:10041000CF911F910F91FF90EF900895CF93DF93AD
:10042000EC01888D8823C9F0EA89FB89808185FDEC
:1004300005C0A889B9898C9186FD0FC00FB607FC4D
:10044000F5CF808185FFF2CFA889B9898C9185FF8E
:10045000EDCFCE010E94A601E7CFDF91CF910895A5
:1004600080E090E0892B29F00E949C0181110C947E
:10047000000008950895E091ED068091EC06E817DC
:1004800030F4F0E0E953F94F808190E008958FEF68
:100490009FEF08959091ED068091EC06981750F427
:1004A000E92FF0E0E953F94F208130E09F5F90930E
:1004B000ED0602C02FEF3FEFC90108958091EC06D1
:1004C00090E02091ED06821B9109089585ED8093BF
:1004D000BC008091BC0084FDFCCF1092E906089519
:1004E00040918006262F30E0240F311D2132310546
:1004F000DCF42091E9062430C9F4FC0180E090E0AE
:10050000861758F4309180062191DC01A05AB94F2A
:10051000A30FB11D2C930196F3CF80918006680F35
:100520006093800680E0089581E0089582E0089558
:10053000CF93DF9300D0CDB7DEB7CB01642F4983D3
:100540005A830E9470024981842F5A81952F0F90FF
:100550000F90DF91CF910895CF93DF931F92CDB786
:10056000DEB7698361E0CE0101960E94700281E0EE
:1005700090E00F90DF91CF910895FC014FB7F89470
:1005800020915C0630915D069DE1929FD001939F82
:10059000B00D1124A85EBB4F01900D929A95E1F722
:1005A000C901019624E130E0B9010E94EF0F909358
:1005B0005D0680935C0660915E0670915F0686170B
:1005C000970711F04FBF08950196B9010E94EF0FF0
:1005D00090935F0680935E06F5CF0E9491120F9371
:1005E0001F93CF93DF93CDB7DEB76D970FB6F89417
:1005F000DEBF0FBECDBF93E09983FE0132969CE132
:10060000DF011D929A95E9F78A83E82F880FFF0B87
:10061000EB5FFE4F208130E0F901E458FE4F8491FA
:10062000F901E255FE4F0491F901E656FE4F14918F
:100630001123F9F081110E94A10BE12FF0E0EE0FE0
:10064000FF1FE057FE4FA591B491EC91E02389F094
:1006500080E08B83CE0101960E94BD026D960FB69D
:10066000F894DEBF0FBECDBFDF91CF911F910F91E8
:10067000089581E0EECFCF92DF92EF92FF921F9329
:10068000CF93DF936C018EE291E00E94DC090D2C88
:10069000000CEE08FF08F7FE0CC08DE20E94A309D3
:1006A00066277727CB016C197D098E099F094AE0DF
:1006B00003C04AE0C701B6010E9460090E944B09CD
:1006C00082EA97E00E944A02F12CC0E0D0E020913B
:1006D000EC0630E08091ED06281B31091216130656
:1006E0000CF04AC082EA97E00E944A02182F209735
:1006F00041F491E080E0143309F090E0C92FD82F45
:10070000E6CFC130D105A1F1C230D10501F789E4AE
:1007100091E00E94DC09CF2D0F2C000CDD0BCE01E7
:100720000E94AE0988E591E00E94DC09812F012E2C
:10073000000C990B0E94AE0984EE91E00E945109D1
:100740008FEF8F0D883078F4CA5FDE4F219711301C
:1007500011F460E001C061E088810E94CA0B8F2D16
:100760000E94EF02B2CF8AE591E00E945109ADCF1D
:10077000F82EC2E0D0E0ABCFDF91CF911F91FF9078
:10078000EF90DF90CF9008953FB7F89480910107E4
:1007900090910207A0910307B091040726B5A89B8A
:1007A00005C02F3F19F00196A11DB11D3FBFBA2F03
:1007B000A92F982F8827820F911DA11DB11DBC0163
:1007C000CD0143E0660F771F881F991F4A95D1F727
:1007D00008952F923F924F925F926F927F928F92E5
:1007E0009F92AF92BF92CF92DF92EF92FF920F93C0
:1007F0001F93CF93DF93CDB7DEB7EF970FB6F89483
:10080000DEBF0FBECDBF0E94C4036B017C0180918F
:10081000140490911504A0911604B0911704892B2B
:100820008A2B8B2B41F4C0921404D0921504E092D1
:100830001604F09217048091140490911504A0916D
:100840001604B09117049601281B390B2C3647E08B
:10085000340708F496C18091120490911304892BF7
:1008600029F4253358E0350708F08BC18091120434
:1008700090911304AC014F5F5F4F5093130440936A
:100880001204880F991FFC01EE5EFC4F3183208318
:10089000213C3D4508F46EC18091120490911304EF
:1008A000089708F463C180911204909113049BA3EC
:1008B0008AA38BE691E00E94DC09AAA1BBA1BD013D
:1008C00080E090E04AE00E94600984EE91E00E949E
:1008D000510900911203109113039801A3E0B0E0B5
:1008E0000E94251068A779A78AA79BA7A9E1B0E075
:1008F0000E94251024E6822E912CA12CB12CA5015A
:1009000094010E94031029013A019801ABE4B0E080
:100910000E942510A50194010E9403102CAF3DAF49
:100920004EAF5FAF21E030E039A328A31F8E1E8EAB
:10093000A12CB12C60E070E0212C312C812C912C69
:100940001EA21FA21DA61CA61CA21DA24AA15BA13D
:10095000415051095BA34AA3980140E050E02EA703
:100960003FA748AB59AB01E310E32E8D3F8D4AA161
:100970005BA12417350708F032C1880C991CEE8D55
:10098000FF8DEE0FFF1FEE5EFC4F20813181C9010C
:10099000A0E0B0E02EA53FA548A959A9821B930B62
:1009A000A40BB50B88AF99AFAAAFBBAFB7FF0BC015
:1009B000B095A095909581959F4FAF4FBF4F88AF51
:1009C00099AFAAAFBBAF88AD99ADAAADBBAD841549
:1009D0009505A605B70508F044C1E8A1F9A1EE0FF9
:1009E000FF1FDF01AE5EBC4F8D919C919C0140E0EA
:1009F00050E088A599A5AAA5BBA5281B390B4A0BD1
:100A00005B0B28AF39AF4AAF5BAF57FF0BC05095B8
:100A10004095309521953F4F4F4F5F4F28AF39AFED
:100A20004AAF5BAF28AD39AD4AAD5BAD8CAD9DAD86
:100A3000AEADBFAD281739074A075B0708F0C6C03F
:100A4000F101EE52FD4F10839FEF291A390A61150B
:100A5000710509F495C12114310419F04FEFA41A5E
:100A6000B40A6130710509F4CDC06230710509F432
:100A7000D4C06330710509F4DBC06430710509F03E
:100A8000E3C0A4E0AA16B10409F0DEC0F101EE5201
:100A9000FD4F10823092D1022092D00281E08983F2
:100AA000FE0132968CE1DF011D928A95E9F72CA1B7
:100AB0002A833DA13B838EE791E00E94DC098CA153
:100AC0009DA10E94A70A8CA59DA5845F91409D834E
:100AD0008C83888687E891E00E94DC09C4010E942B
:100AE000A70A4EA14E835FA15F8383E991E00E9434
:100AF000DC098EA19FA10E94A70A8FE991E00E94C4
:100B0000DC0982ED92E00E94510988EA91E00E949E
:100B1000DC096C817D81072E000C880B990B0E94EB
:100B20006A1120E030E040E251E40E94C0100E94CF
:100B3000E10987EB91E00E945109CE0101960E94E4
:100B4000BD022FB7F8948091FD069091FE06A0910A
:100B5000FF06B09100072FBF8093F8069093F90627
:100B6000A093FA06B093FB060E944B09109213045F
:100B70001092120480911204909113048038910510
:100B800020F01092130410921204C0921404D09218
:100B90001504E0921604F0921704EF960FB6F8943D
:100BA000DEBF0FBECDBFDF91CF911F910F91FF90A0
:100BB000EF90DF90CF90BF90AF909F908F907F90FD
:100BC0006F905F904F903F902F900895EE5EFC4F96
:100BD00080819181813C9D4508F032CF42C06530D3
:100BE000710519F4812C912C51CFF101EE52FD4F7A
:100BF00010828AEB91E00E94DC0982ED92E00E9473
:100C00005109B2CF55E0A516B104F1F48CA29DA212
:100C1000A12CB12C62E070E015C08AE0A816B104E6
:100C200099F49DA68CA6A12CB12C63E070E00AC0BB
:100C30009AE0A916B10441F48EA29FA2A12CB12C76
:100C400064E070E0812C912C2E8D3F8D2E5F3F4F04
:100C50003F8F2E8F48A159A14E5F5F4F59A348A3E4
:100C600084CEEE8DFF8DEE0FFF1FEE5EFC4F808178
:100C700091819C0140E050E088A599A5AAA5BBA55B
:100C8000281B390B4A0B5B0B28AF39AF4AAF5BAF60
:100C900057FF0BC050954095309521953F4F4F4FD2
:100CA0005F4F28AF39AF4AAF5BAF28AD39AD4AAD22
:100CB0005BAD8CAD9DADAEADBFAD281739074A0712
:100CC0005B0708F045C0E8A1F9A1EE0FFF1FDF01A7
:100CD000AE5EBC4F8D919C919C0140E050E08EA592
:100CE0009FA5A8A9B9A9281B390B4A0B5B0B28AFF4
:100CF00039AF4AAF5BAF57FF0BC050954095309569
:100D000021953F4F4F4F5F4F28AF39AF4AAF5BAF91
:100D100028AD39AD4AAD5BAD2415350546055705FF
:100D200038F0EE5EFC4F80819181813C9D4580F0E2
:100D3000689480F8F101EE52FD4F00839FEF291A6D
:100D4000390A6115710509F086CE61E070E083CE45
:100D5000F101EE52FD4F10828AEB91E06AAB7BAB62
:100D60000E94DC0982ED92E00E9451096AA97BA9E8
:100D7000812C912C212C312C6115710509F071CE3B
:100D800060E070E061CF1F920F920FB60F921124B6
:100D90002F933F938F939F93AF93BF938091FD06C3
:100DA0009091FE06A091FF06B09100073091FC06DD
:100DB00026E0230F2D3720F40296A11DB11D05C09A
:100DC00029E8230F0396A11DB11D2093FC068093F3
:100DD000FD069093FE06A093FF06B0930007809156
:100DE000010790910207A0910307B09104070196B3
:100DF000A11DB11D8093010790930207A0930307E3
:100E0000B0930407BF91AF919F918F913F912F9124
:100E10000F900FBE0F901F9018951F920F920FB654
:100E20000F9211242F933F934F935F936F937F9370
:100E30008F939F93AF93BF93EF93FF93E091020142
:100E4000F09103010995FF91EF91BF91AF919F91AF
:100E50008F917F916F915F914F913F912F910F9063
:100E60000FBE0F901F9018951F920F920FB60F9202
:100E700011242F933F934F935F936F937F938F939F
:100E80009F93AF93BF93EF93FF93E0910001F09195
:100E900001010995FF91EF91BF91AF919F918F91C2
:100EA0007F916F915F914F913F912F910F900FBE66
:100EB0000F901F9018951F920F920FB60F9211244A
:100EC0002F933F934F935F936F937F938F939F9352
:100ED000AF93BF93EF93FF9385E097E00E94A60145
:100EE000FF91EF91BF91AF919F918F917F916F9102
:100EF0005F914F913F912F910F900FBE0F901F90D8
:100F000018951F920F920FB60F9211242F938F9363
:100F10009F93EF93FF93E0911507F091160780815F
:100F2000E0911B07F0911C0782FD12C09081809117
:100F30001E078F5F8F7320911F07821751F0E0917A
:100F40001E07F0E0EB5FF84F958F80931E0701C0FE
:100F50008081FF91EF919F918F912F910F900FBE04
:100F60000F901F9018951F920F920FB60F92112499
:100F70002F933F934F935F936F937F938F939F93A1
:100F8000AF93BF93EF93FF938091B900887F803632
:100F900009F49CC068F5883209F45BC090F4803194
:100FA00009F454C038F4882309F4F6C0883009F4F1
:100FB0004DC0F6C0883109F44CC0803209F45DC0E0
:100FC000EFC0803409F468C048F4803309F455C098
:100FD000883309F0E5C08093A306D8C0803509F4B2
:100FE0004FC0883509F45DC0883409F0D9C0D6C037
:100FF000883909F4C7C0A8F4883709F467C038F401
:10100000883609F463C0803709F460C0C9C08838E5
:1010100009F4B8C0803909F45FC0803809F0C0C055
:101020005BC0803B09F486C038F4803A09F466C09E
:10103000883A09F47FC0B4C0803C09F4A7C0883C5A
:1010400009F4A4C0883B09F48AC0AAC08091C606EE
:1010500010C09091C5068091C406981770F5E09174
:10106000C50681E08E0F8093C506F0E0EC55F94F80
:1010700080818093BB0085EC86C08093A3068EC0E0
:10108000E091C50681E08E0F8093C5068091BB007C
:10109000F0E0EC55F94F80839091C5068091C4062D
:1010A0006EC0E091C50681E08E0F8093C5068091E9
:1010B000BB00F0E0EC55F94F80838091E806811188
:1010C0006DC081E08093E70684EA61C083E080938D
:1010D000E9061092A206CFCF8091A206803208F0D6
:1010E00051C0E091A20681E08E0F8093A20680910C
:1010F000BB00F0E0EE57F94F8083BDCF85EC8093C5
:10110000BC001092E9068091A206803230F4E09192
:10111000A206F0E0EE57F94F10826091A20670E04F
:10112000E091EE06F091EF0682E896E009951092C4
:10113000A20636C084E08093E906109281061092E0
:101140008006E091F006F091F10609958091800605
:10115000811105C081E08093800610926006E091C5
:10116000810681E08E0F80938106F0E0E05AF94F0E
:1011700080818093BB0090918106809180069817B2
:1011800008F479CF85E88093BC000AC085EC809391
:10119000BC001092E90604C01092A3060E946602E9
:1011A000FF91EF91BF91AF919F918F917F916F913F
:1011B0005F914F913F912F910F900FBE0F901F9015
:1011C00018956115710579F0FB0101900020E9F790
:1011D0003197AF01461B570BDC01ED91FC9102806A
:1011E000F381E02D099480E090E00895CF93DF93A0
:1011F000CDB7DEB76D970FB6F894DEBF0FBECDBF8B
:101200008FE892E00E9451093FB7F89480915E0602
:1012100090915F0640915C0650915D06841795079A
:1012200091F480E03FBF882339F189EA92E00E947F
:10123000DC094DE150E0BE016F5F7F4F82EA97E02D
:101240000E9498021FC02DE1289FF001299FF00DF8
:101250001124E85EFB4FDE01119601900D922A9554
:10126000E1F7019664E170E00E94EF0F90935F0652
:1012700080935E0681E0D6CF64E071E082EA97E079
:101280000E94E1086D960FB6F894DEBF0FBECDBF89
:10129000DF91CF91089561EC72E085E097E00C94C6
:1012A000E108CF93DF93BC0185E097E00E94E1085D
:1012B000EC010E944B098C0F9D1FDF91CF91089587
:1012C0008F929F92AF92BF920F931F93CF93DF9312
:1012D000CDB7DEB7A1970FB6F894DEBF0FBECDBF76
:1012E00019A2423008F44AE08E010F5D1F4F842E90
:1012F000912CA12CB12CA50194010E940310E62F82
:10130000B901CA0101501109EA3014F4E05D01C0CD
:10131000E95CD801EC93232B242B252B61F7B80132
:1013200085E097E00E94E108A1960FB6F894DEBF31
:101330000FBECDBFDF91CF911F910F91BF90AF90A6
:101340009F908F900895E0910507F0910607019016
:10135000F081E02D682F85E097E00994CF92DF922D
:10136000EF92FF92CF93DF936C01990FEE08FF0885
:10137000F7FE17C08DE20E94A309EC0166277727CC
:10138000CB016C197D098E099F094AE00E94600912
:101390008C0F9D1FDF91CF91FF90EF90DF90CF904A
:1013A00008954AE0C701B601DF91CF91FF90EF9019
:1013B000DF90CF900C946009BC0185E097E00C941D
:1013C000E1088F929F92AF92BF92CF92DF92EF92FD
:1013D000FF92CF93DF936B017C019B01AC010E94D4
:1013E0008C12882319F064EC72E027C04601570183
:1013F000E894B7F82FEF3FEF4FE75FE7C501B4017F
:101400000E948C1281110DC02FEF3FEF4FE75FE775
:10141000C501B4010E94BB1018161CF468EC72E000
:101420000CC02FEF3FEF4FE75FE4C701B6010E940A
:101430001A12181684F46CEC72E085E097E0DF91E4
:10144000CF91FF90EF90DF90CF90BF90AF909F90A3
:101450008F900C94E1082FEF3FEF4FE75FECC7014F
:10146000B6010E94BB1087FDE6CF20E030E0A90165
:10147000C701B6010E94BB1087FF09C08DE20E9420
:10148000A309EC01F7FAF094F7F8F09402C0C0E079
:10149000D0E02AE037ED43EA5BE3C701B6010E94E2
:1014A0004F104B015C010E9439116B017C010E94BD
:1014B00068119B01AC01C501B4010E944E104B01A3
:1014C0005C014AE0C701B6010E946009C80FD91F3C
:1014D0008EE20E94A309C80FD91F20E030E040E24D
:1014E00051E4C501B4010E941F124B015C010E942E
:1014F00039116B01E12CF12C4AE0C701B6010E94C1
:101500006009C80FD91FC701B6010E9468119B016D
:10151000AC01C501B4010E944E1020E030E040E271
:1015200051E40E941F120E94391180E090E04AE0CD
:101530000E9460098C0F9D1FDF91CF91FF90EF906B
:10154000DF90CF90BF90AF909F908F900895CF93F2
:10155000DF93BC0180E090E040E10E946009EC0173
:101560000E944B098C0F9D1FDF91CF9108958091B0
:10157000AE07E091AF07F091B007F8949181982BF6
:1015800091832281982F909529232283A2E0B0E0B5
:101590001197F1F7218192239183A0E1B0E0119797
:1015A000F1F790817894E6E6F0E03197F1F798232F
:1015B00081E009F480E008959091AE07E091AF07D3
:1015C000F091B007392F309580FF13C0F894228135
:1015D000832F822382838181892B8183A0E1B0E0E4
:1015E0001197F1F78281982B928378948AE690E0A4
:1015F00012C0F8942281832F822382838181892BD8
:101600008183AEE7B0E01197F1F78281982B928346
:10161000789486E090E00197F1F70895EF92FF92B9
:101620000F931F93CF93DF931F92CDB7DEB7082F91
:1016300088E0E82EF12C11E081E0912F902309F44D
:1016400080E069830E94DC0A110F81E0E81AF1084A
:101650006981E114F10481F7611113C0F894E091FC
:10166000AF07F091B00791818091AE0780959823E4
:101670009183E091AF07F091B00792818923828333
:1016800078940F90DF91CF911F910F91FF90EF9081
:101690000895EF92FF920F931F93CF93DF931F92C2
:1016A000CDB7DEB7182F60E085E599830E940E0B59
:1016B000E12E9981F92E8701085F1F4F60E0F70145
:1016C00081917F010E940E0BE016F106B9F70F9091
:1016D000DF91CF911F910F91FF90EF90089590911E
:1016E000AE07E091AF07F091B007F8948181292F00
:1016F00020958223818378948DE7815009F1308190
:101700003923D9F3F8948281822382838181892BC2
:1017100081837894ACEBB3E01197F1F7F894818171
:1017200028232183A8E8B0E01197F1F7808198235E
:1017300081E009F080E07894E0E3F3E03197F1F79D
:101740000895833081F028F4813099F08230A1F03F
:1017500008958730A9F08830B9F08430D1F48091B1
:1017600080008F7D03C0809180008F778093800000
:10177000089584B58F7702C084B58F7D84BD0895A8
:101780008091B0008F7703C08091B0008F7D8093EF
:10179000B00008951F93CF93DF93282F30E0F90115
:1017A000E458FE4F8491F901E255FE4FD491F901BE
:1017B000E656FE4FC491CC23C9F0162F81110E942A
:1017C000A10BEC2FF0E0EE0FFF1FEE58FE4FA5919E
:1017D000B4918FB7F894111105C09C91ED2FE0954D
:1017E000E92302C0EC91ED2BEC938FBFDF91CF91F9
:1017F0001F910895CF93DF9390E0FC01E255FE4FD7
:101800002491FC01E656FE4F8491882361F190E01B
:10181000880F991FFC01E859FE4FC591D491FC0136
:10182000EE58FE4FA591B491611109C09FB7F8948D
:101830008881209582238883EC912E230BC062300F
:1018400061F49FB7F8943881822F80958323888331
:10185000EC912E2B2C939FBF06C08FB7F894E88194
:101860002E2B28838FBFDF91CF9108958F929F9267
:10187000AF92BF92CF92DF92EF92FF926B017C0109
:101880000E94C4034B015C01C114D104E104F104C2
:10189000F1F00E94C403DC01CB0188199909AA095F
:1018A000BB09883E9340A105B10570F321E0C21A3F
:1018B000D108E108F10888EE880E83E0981EA11C8B
:1018C000B11CC114D104E104F10419F7DDCFFF907C
:1018D000EF90DF90CF90BF90AF909F908F90089542
:1018E000CF93DF93CDB7DEB7E8970FB6F894DEBF9E
:1018F0000FBECDBF789484B5826084BD84B581600D
:1019000084BD85B5826085BD85B5816085BD8091CA
:101910006E00816080936E00109281008091810042
:10192000826080938100809181008160809381003A
:10193000809180008160809380008091B1008460FC
:101940008093B1008091B00081608093B00080915D
:101950007A00846080937A0080917A00826080931C
:101960007A0080917A008E7F80937A0080917A004D
:10197000806880937A001092C10080E18093BA0061
:101980008CE091E09093F1068093F00688E191E07D
:101990009093EF068093EE061092ED061092EC06FF
:1019A0001092EB061092EA061092E90681E080930D
:1019B000E8061092E70661E082E10E94CA0B61E04E
:1019C00083E10E94CA0B8091B9008E7F8093B90099
:1019D0008091B9008D7F8093B90080E28093B80038
:1019E00085E48093BC0086EF98E09093F3068093A3
:1019F000F2068BE393E09093F5068093F40660E0A3
:101A000082E00E94FA0B61E08DE00E94FA0B06E092
:101A100011E0D801FD908D0161E08F2D0E94CA0B6D
:101A200061E08F2D0E94FA0BB1E00E301B0789F7A1
:101A300089EE93E090930101809300018091690009
:101A40008C7F816080936900E89A8FEB92EFACEF16
:101A5000BFEF8093F8069093F906A093FA06B0932F
:101A6000FB06E0911507F091160782E08083E09174
:101A70001107F09112071082E0911307F0911407FB
:101A800080E1808310921D07E0911907F0911A07F9
:101A900086E08083E0911707F091180780818061CC
:101AA0008083E0911707F091180780818860808318
:101AB000E0911707F0911807808180688083E0919A
:101AC0001707F091180780818F7D808311E0812FA7
:101AD0000E94EF021F5F1930D1F787EC91E00E945E
:101AE00051098E01065D1F4F1E01E2E32E0E311CCF
:101AF000F7E0F00FFCAB7E012EE1E20EF11C88E076
:101B00008E0D8DAB4E01A2E08A0E911C2FB7F8947A
:101B10008091FD069091FE06A091FF06B09100070E
:101B20002FBF4091F8065091F9066091FA06709126
:101B3000FB06841B950BA60BB70B80349D40A3407E
:101B4000B10514F461E009C06091F70670E06F5FC1
:101B50007F4F617077276093F7068DE00E94CA0B74
:101B600068EE73E080E090E00E94360C8091F6060B
:101B7000082E000C990B01966AE070E00E94EF0FAE
:101B80008093F606892B09F08CC088ED91E00E94C5
:101B900051098091BB07811104C00E946F0B811114
:101BA00015C01092B9071092BB071092BA0786EEC3
:101BB00091E00E9451090E944B091092B9071092BE
:101BC000BB071092BA07E9EBF7E058C060E080EF7E
:101BD0000E940E0BCC24C394B12CA12CDD24D394F1
:101BE0000E94B70A8EAB0E94B70A9EA9913019F4E1
:101BF0008130D1F437C0EB2DF0E098131FC08091F5
:101C0000B907D81640F4DF01A255B84F13968C914E
:101C10008C2151F402C0D81639F090E028E02D153F
:101C200060F0D092BA0709C0EB2DF0E0E255F84F12
:101C300083818C29838391E008C0AD2CE255F84F55
:101C400023818C2D809582238383892F0E94DC0A37
:101C5000D394CC0C19F4B394CC24C39487E08B15A3
:101C600008F0BECFA0E4AD1508F09BCFA092B90755
:101C7000A1101AC081E08093BB0716C01292B7E092
:101C8000E13BFB07D9F76AEF70E080E090E00E944B
:101C9000360C07C089A9E817D1F18BEF91E00E94BB
:101CA00051090E94300232CF8091B107882309F494
:101CB00078CFA1EBB7E06801F8018D918193E2152F
:101CC000F305D9F787E892E00E94DC095801E8E0C3
:101CD000E00FEBAB60E285E097E00E94C701F50101
:101CE00061915F0170E080E090E040E10E94600956
:101CF000FBA9FA11EFCFD801E0E02CA92A1751F285
:101D00008D91E827F0E0E859FF4FE491F6CF0E946B
:101D10004B098AA5823271F0883249F0803181F412
:101D20008DE092E00E945109772473940CC08EE1FB
:101D300092E002C08FE292E00E945109712C03C030
:101D40008FE392E0ACCF0E946F0BC8010E94490B59
:101D500061E084E40E940E0B68EE73E080E090E0A6
:101D60000E94360C0E946F0BB82EC8010E94490BCE
:101D700060E08EEB0E940E0B86E692E00E94DC098A
:101D80006B2D70E080E090E040E10E9460098EE6FB
:101D900092E00E94DC095701270189E08E0D8AAB91
:101DA00028E030E06624639460E02EAB3FAB68AF80
:101DB0000E94B70A2EA93FA968AD81116629660C59
:101DC0002150310991F7D2016D932D0170E080E02F
:101DD00090E040E10E9460098EE692E00E94DC09FA
:101DE000BAA9B411DDCF80E792E00E94DC09D701E7
:101DF000E0E0FDA9FA1739F06D91E627F0E0E85927
:101E0000FF4FE491F6CF6E2F70E080E090E040E16C
:101E10000E9460090E944B096F8D70E0762F662743
:101E20008E8D682B772089F083E0660F771F8A9567
:101E3000E1F78DA18031A9F42CA18CE090E0821B08
:101E40009109607F680F791F0CC08AA1807611F418
:101E5000687F07C0803211F46C7F03C0803409F4BE
:101E60006E7F072E000C880B990B0E946A1120E0F0
:101E700030E040E85DE30E941F122B013C0186E741
:101E800092E00E94DC09C301B2010E94E10987EBE4
:101E900091E00E9451090E944B0982E089838CE104
:101EA000D4011D928A95E9F7F401D6018D916D0157
:101EB0008193BBA9BC11F9CFFE013A96D5018D9152
:101EC0005D018193BAA9BA11F9CF20E030E048EC66
:101ED00052E4C301B2010E941F120E9432117D8B95
:101EE0006C8BCE0101960E94BD02DBCE10920807DA
:101EF0001092070788EE93E0A0E0B0E08093090716
:101F000090930A07A0930B07B0930C0722E131E0EE
:101F1000309306072093050725EC30E03093120735
:101F20002093110724EC30E030931407209313071B
:101F300020EC30E0309316072093150721EC30E0B9
:101F4000309318072093170722EC30E030931A07DC
:101F50002093190726EC30E030931C0720931B07D1
:101F600010921E0710921F0710922007109221074F
:101F70001092A5071092A4078093A6079093A70735
:101F8000A093A807B093A90782E291E09093A307DA
:101F90008093A20760E083E00E94FA0BE1EBF1E09E
:101FA000E491E093AE07EDE9F1E0E491F0E0EE0FAB
:101FB000FF1FE057FE4F859194919093B007809357
:101FC000AF071092B9071092BB071092BA07E9EB5E
:101FD000F7E0129287E0E13BF807D9F7089597FB05
:101FE000072E16F4009407D077FD09D00E94341014
:101FF00007FC05D03EF4909581959F4F089570950C
:1020000061957F4F0895A1E21A2EAA1BBB1BFD010B
:102010000DC0AA1FBB1FEE1FFF1FA217B307E407C7
:10202000F50720F0A21BB30BE40BF50B661F771F1F
:10203000881F991F1A9469F76095709580959095FF
:102040009B01AC01BD01CF010895A29FB001B39FD8
:10205000C001A39F700D811D1124911DB29F700DB1
:10206000811D1124911D0895AA1BBB1B51E107C0BE
:10207000AA1FBB1FA617B70710F0A61BB70B881F18
:10208000991F5A95A9F780959095BC01CD010895A7
:10209000EE0FFF1F0590F491E02D09945058BB27D7
:1020A000AA270E9466100C94E0110E94D21138F009
:1020B0000E94D91120F039F49F3F19F426F40C94B2
:1020C000CF110EF4E095E7FB0C94C911E92F0E94A3
:1020D000F11158F3BA17620773078407950720F0C8
:1020E00079F4A6F50C9413120EF4E0950B2EBA2F8A
:1020F000A02D0B01B90190010C01CA01A00111240E
:10210000FF27591B99F0593F50F4503E68F11A16B9
:10211000F040A22F232F342F4427585FF3CF46954A
:1021200037952795A795F0405395C9F77EF41F166C
:10213000BA0B620B730B840BBAF09150A1F0FF0F36
:10214000BB1F661F771F881FC2F70EC0BA0F621F22
:10215000731F841F48F4879577956795B795F79512
:102160009E3F08F0B0CF9395880F08F09927EE0FA7
:102170009795879508950E94A51108F481E0089528
:102180000E94D4100C94E0110E94D91158F00E94C2
:10219000D21140F029F45F3F29F00C94C91151117C
:1021A0000C9414120C94CF110E94F11168F399232E
:1021B000B1F3552391F3951B550BBB27AA27621743
:1021C0007307840738F09F5F5F4F220F331F441F50
:1021D000AA1FA9F335D00E2E3AF0E0E832D0915084
:1021E0005040E695001CCAF72BD0FE2F29D0660F71
:1021F000771F881FBB1F261737074807AB07B0E8B4
:1022000009F0BB0B802DBF01FF2793585F4F3AF0B9
:102210009E3F510578F00C94C9110C9414125F3F45
:10222000E4F3983ED4F3869577956795B795F7953F
:102230009F5FC9F7880F911D9695879597F9089527
:10224000E1E0660F771F881FBB1F621773078407C3
:10225000BA0720F0621B730B840BBA0BEE1F88F7D2
:10226000E09508950E9439116894B1110C941412EC
:1022700008950E94F91188F09F5798F0B92F992777
:10228000B751B0F0E1F0660F771F881F991F1AF061
:10229000BA95C9F714C0B13091F00E941312B1E0A1
:1022A00008950C941312672F782F8827B85F39F0A0
:1022B000B93FCCF3869577956795B395D9F73EF4FA
:1022C00090958095709561957F4F8F4F9F4F0895A2
:1022D000E89409C097FB3EF49095809570956195C0
:1022E0007F4F8F4F9F4F9923A9F0F92F96E9BB2776
:1022F0009395F695879577956795B795F111F8CFF2
:10230000FAF4BB0F11F460FF1BC06F5F7F4F8F4F5C
:102310009F4F16C0882311F096E911C0772321F052
:102320009EE8872F762F05C0662371F096E8862FEA
:1023300070E060E02AF09A95660F771F881FDAF741
:10234000880F9695879597F90895990F0008550F6E
:10235000AA0BE0E8FEEF16161706E807F907C0F02B
:1023600012161306E407F50798F0621B730B840B33
:10237000950B39F40A2661F0232B242B252B21F40D
:1023800008950A2609F4A140A6958FEF811D811DAD
:10239000089597F99F6780E870E060E008959FEFE7
:1023A00080EC089500240A941616170618060906EC
:1023B000089500240A9412161306140605060895BB
:1023C000092E0394000C11F4882352F0BB0F40F443
:1023D000BF2B11F460FF04C06F5F7F4F8F4F9F4F83
:1023E000089557FD9058440F551F59F05F3F71F005
:1023F0004795880F97FB991F61F09F3F79F087956C
:102400000895121613061406551FF2CF4695F1DFF4
:1024100008C0161617061806991FF1CF8695710584
:10242000610508940895E894BB2766277727CB01B8
:1024300097F908950E94A51108F48FEF08950E945E
:1024400032120C94E0110E94D21138F00E94D9117E
:1024500020F0952311F00C94C9110C94CF11112484
:102460000C9414120E94F11170F3959FC1F3950F13
:1024700050E0551F629FF001729FBB27F00DB11D08
:10248000639FAA27F00DB11DAA1F649F6627B00D98
:10249000A11D661F829F2227B00DA11D621F739F81
:1024A000B00DA11D621F839FA00D611D221F749F8F
:1024B0003327A00D611D231F849F600D211D822FD6
:1024C000762F6A2F11249F5750409AF0F1F08823FD
:1024D0004AF0EE0FFF1FBB1F661F771F881F91502A
:1024E0005040A9F79E3F510580F00C94C9110C94FF
:1024F00014125F3FE4F3983ED4F386957795679581
:10250000B795F795E7959F5FC1F7FE2B880F911D53
:102510009695879597F908950E94A511880B990BB8
:10252000089581E090E0F8940C949612F894FFCF0F
:1025300042014201000005060708090A0B0C0000D1
:102540000000C701430190016E0182010E020000EC
:102550000000AC0298025E024A023B023A02726537
:1025600063656976654576656E7446726F6D49324E
:10257000434D6173746572200073657452656C61BC
:1025800079537461746528002C0072656C61792040
:10259000696420696E76616C69640072656365695F
:1025A0007665524650726F746F636F6C28002020FE
:1025B00073746172743D002020636865636B73758A
:1025C0006D3D0020206F626A65637469643D002080
:1025D000207472616D653D00202074656D706572B8
:1025E00061747572653D00B0430020207472756E91
:1025F00063617465643D007365747570282920619A
:102600006368696576656400726561644F6E6557DD
:1026100069726528290020204E6F206D6F72652039
:102620006164647265737365732E0043524320695D
:1026300073206E6F742076616C69642100202043E2
:10264000686970203D2044533138533230002020D7
:1026500043686970203D20445331384232300020B5
:102660002043686970203D204453313832320044A1
:102670006576696365206973206E6F7420612044FC
:102680005331387832302066616D696C7920646529
:10269000766963652E00202044617461203D20002E
:1026A000204352433D00202054656D706572617473
:1026B000757265203D20002020524F4D203D006462
:1026C0006174615265717565737446726F6D4932DC
:1026D000434D617374657220007265717565737422
:1026E0004576656E742829202D3E20646174610A48
:1026F000000D0A006E616E00696E66006F766600FE
:00000001FF
