:100000000C94E2000C94DB060C94B4060C940A01E8
:100010000C940A010C940A010C940A010C940A0134
:100020000C940A010C940A010C940A010C940A0124
:100030000C940A010C940A010C940A010C940A0114
:100040000C946A060C940A010C9428070C9402077D
:100050000C940A010C940A010C940A010C940A01F4
:100060000C945A070C940A01005EBCE2613FDD83E8
:10007000C29C7E20A3FD1F419DC3217FFCA2401E88
:100080005F01E3BD3E6082DC237D9FC1421CFEA078
:10009000E1BF5D0380DE3C62BEE0025CDF81633D68
:1000A0007C22C09E1D43A1FF4618FAA427799BC558
:1000B00084DA3866E5BB5907DB856739BAE4065848
:1000C0001947A5FB7826C49A653BD987045AB8E638
:1000D000A7F91B45C6987A24F8A6441A99C7257B28
:1000E0003A6486D85B05E7B98CD2306EEDB3510F18
:1000F0004E10F2AC2F7193CD114FADF3702ECC9208
:10010000D38D6F31B2EC0E50AFF1134DCE90722CF7
:100110006D33D18F0C52B0EE326C8ED0530DEFB1E7
:10012000F0AE4C1291CF2D73CA947628ABF51749D7
:100130000856B4EA6937D58B5709EBB536688AD4C7
:1001400095CB2977F4AA4816E9B7550B88D6346AB7
:100150002B7597C94A14F6A8742AC896154BA9F7A7
:10016000B6E80A54D7896B35000000002400270048
:100170002A0000000000250028002B0000000008D5
:10018000000201000003040700000000000000005E
:1001900000000000230026002900040404040404D5
:1001A0000404020202020202030303030303010226
:1001B00004081020408001020408102001020408F5
:1001C0001020F30E11241FBECFEFD8E0DEBFCDBF4D
:1001D00012E0A0E0B1E0EAE2F4E202C005900D9284
:1001E000A03DB107D9F727E0A0EDB2E001C01D9214
:1001F000AC3BB207E1F710E0C2EED0E004C02197BB
:10020000FE010E94C50FC13ED107C9F70E94F40B41
:100210000C9413120C940000E091F206F091F30696
:10022000309729F01092EB061092EA06099408958F
:10023000CF93DF93AC01E091F406F091F50630978F
:10024000F1F09091ED068091EC069817C0F090E0E7
:10025000292F30E02617370754F4D901A953B94F95
:10026000EA01C20FD31F88818C939F5FF1CF109258
:10027000ED066093EC06CB01DF91CF910994DF91FD
:10028000CF9108950895CF92DF92EF92FF920F934E
:100290001F93CF93DF936C017A018B01C0E0D0E014
:1002A000CE15DF0589F0D8016D918D01D601ED9154
:1002B000FC910190F081E02DC6010995892B11F484
:1002C0007E0102C02196ECCFC701DF91CF911F9133
:1002D0000F91FF90EF90DF90CF900895FC01918DEA
:1002E000828D981761F0828DDF01A80FB11D5D9698
:1002F0008C91928D9F5F9F73928F90E008958FEF06
:100300009FEF0895FC01918D828D981731F0828DB9
:10031000E80FF11D858D90E008958FEF9FEF089510
:10032000FC01918D228D892F90E0805C9F4F821B74
:1003300091098F739927089585E097E00E949001B5
:1003400021E0892B09F420E0822F0895FC01848D9F
:10035000DF01A80FB11DA35ABF4F2C91848D90E0EF
:1003600001968F739927848FA689B7892C93A089CA
:10037000B1898C9180648C93938D848D981306C081
:100380000288F389E02D80818F7D80830895EF922C
:10039000FF920F931F93CF93DF93EC0181E0888F3F
:1003A0009B8D8C8D981305C0E889F989808185FD26
:1003B00024C0F62E0B8D10E00F5F1F4F0F73112717
:1003C000E02E8C8DE8120CC00FB607FCFACFE8893E
:1003D000F989808185FFF5CFCE010E94A601F1CF7A
:1003E0008B8DFE01E80FF11DE35AFF4FF0820B8F5A
:1003F000EA89FB898081806207C0EE89FF8960837A
:10040000E889F98980818064808381E090E0DF91D0
:10041000CF911F910F91FF90EF900895CF93DF93AD
:10042000EC01888D8823C9F0EA89FB89808185FDEC
:1004300005C0A889B9898C9186FD0FC00FB607FC4D
:10044000F5CF808185FFF2CFA889B9898C9185FF8E
:10045000EDCFCE010E94A601E7CFDF91CF910895A5
:1004600080E090E0892B29F00E949C0181110C947E
:10047000000008950895E091ED068091EC06E817DC
:1004800030F4F0E0E953F94F808190E008958FEF68
:100490009FEF08959091ED068091EC06981750F427
:1004A000E92FF0E0E953F94F208130E09F5F90930E
:1004B000ED0602C02FEF3FEFC90108958091EC06D1
:1004C00090E02091ED06821B9109089585ED8093BF
:1004D000BC008091BC0084FDFCCF1092E906089519
:1004E00040918006262F30E0240F311D2132310546
:1004F000DCF42091E9062430C9F4FC0180E090E0AE
:10050000861758F4309180062191DC01A05AB94F2A
:10051000A30FB11D2C930196F3CF80918006680F35
:100520006093800680E0089581E0089582E0089558
:10053000CF93DF9300D0CDB7DEB7CB01642F4983D3
:100540005A830E9470024981842F5A81952F0F90FF
:100550000F90DF91CF910895CF93DF931F92CDB786
:10056000DEB7698361E0CE0101960E94700281E0EE
:1005700090E00F90DF91CF910895FC0120915C06EF
:1005800030915D069DE1929FD001939FB00D1124A3
:10059000A85EBB4F01900D929A95E1F7C9010196B3
:1005A00024E130E0B9010E946C0F90935D068093C6
:1005B0005C0640915E0650915F068417950741F4F2
:1005C0000196B9010E946C0F90935F0680935E06BE
:1005D00008950E940E12CF92DF92EF92FF921F9326
:1005E000CF93DF936C018EE291E00E946D090D2C98
:1005F000000CEE08FF08F7FE0CC08DE20E943409E3
:1006000066277727CB016C197D098E099F094AE07F
:1006100003C04AE0C701B6010E94F1080E94DC084D
:1006200082EA97E00E944A02F12CC0E0D0E080917B
:10063000EC0690E02091ED06821B91091816190630
:100640000CF047C082EA97E00E944A02182F2097D8
:1006500041F491E080E0143309F090E0C92FD82FE5
:10066000E6CFC130D10589F1C230D10501F789E467
:1006700091E00E946D09CF2D0F2C000CDD0BCE01F7
:100680000E943F0988E591E00E946D09812F012EAB
:10069000000C990B0E943F0984EE91E00E94E20851
:1006A0008FEF8F0D883060F4CA5FDE4F21971130D5
:1006B00011F460E001C061E088810E94320BB5CF87
:1006C0008AE591E00E94E208B0CFF82EC2E0D0E0C7
:1006D000AECFDF91CF911F91FF90EF90DF90CF9041
:1006E00008953FB7F8948091010790910207A09177
:1006F0000307B091040726B5A89B05C02F3F19F04A
:100700000196A11DB11D3FBFBA2FA92F982F882791
:10071000820F911DA11DB11DBC01CD0143E0660FEB
:10072000771F881F991F4A95D1F708952F923F92FE
:100730004F925F926F927F928F929F92AF92BF92F1
:10074000CF92DF92EF92FF920F931F93CF93DF939D
:10075000CDB7DEB7EF970FB6F894DEBF0FBECDBFB3
:100760000E9471036B017C01809114049091150427
:10077000A0911604B0911704892B8A2B8B2B41F47E
:10078000C0921404D0921504E0921604F09217045B
:100790008091140490911504A0911604B09117044F
:1007A0009601281B390B2C3667E0360708F401C187
:1007B0008091120490911304892B29F4253378E059
:1007C000370708F0F6C08091120490911304AC0131
:1007D0004F5F5F4F5093130440931204880F991F8B
:1007E000FC01EE5EFC4F31832083213C3D4508F443
:1007F000D9C08091120490911304089708F4CEC0D8
:1008000040901204509013048BE691E00E946D0911
:10081000B20180E090E04AE00E94F10884EE91E0AD
:100820000E94E20800911203109113039801A3E0C3
:10083000B0E00E94A20F68A379A38AA39BA3A9E1B9
:10084000B0E00E94A20FE4E68E2E912CA12CB12CD8
:10085000A50194010E94800F2CA33DA34EA35FA38A
:100860009801ABE4B0E00E94A20FA50194010E94A0
:10087000800FA12CB12C1DAE1CAE812C912C212CF3
:10088000312CA0E0B0E0B201615071097FAF6EAFD2
:100890002801612C712C49A65AA66BA67CA601E3FF
:1008A00010E34EAC5FACA414B50408F4A7C065E037
:1008B0008616910409F013C1F101EE52FD4F10822A
:1008C0003092D1022092D00281E08983FE013296DB
:1008D0008CE1DF011D928A95E9F74DA44A825EA45E
:1008E0005B828EE791E00E946D098DA59EA50E9416
:1008F000380A89A99AA9845F91409D838C8368A452
:10090000688687E891E00E946D0988A59BA90E94EE
:10091000380A7FA47E8248A84F8283E991E00E9432
:100920006D098FA598A90E94380A8FE991E00E946D
:100930006D0982ED92E00E94E20888EA91E00E944F
:100940006D096C817D81072E000C880B990B0E942C
:10095000E71020E030E040E251E40E943D100E94A8
:10096000720987EB91E00E94E208CE0101960E9495
:10097000BD022FB7F8948091FD069091FE06A091DC
:10098000FF06B09100072FBF8093F8069093F906F9
:10099000A093FA06B093FB060E94DC0810921304A1
:1009A00010921204809112049091130480389105E2
:1009B00020F01092130410921204C0921404D092EA
:1009C0001504E0921604F0921704EF960FB6F8940F
:1009D000DEBF0FBECDBFDF91CF911F910F91FF9072
:1009E000EF90DF90CF90BF90AF909F908F907F90CF
:1009F0006F905F904F903F902F900895AA0FBB1F6C
:100A0000F501EE0FFF1FEE5EFC4F0190F081E02D2F
:100A1000BF0180E090E049A45AA46BA47CA46419AF
:100A200075098609970968AF79AF8AAF9BAF97FFC1
:100A30000BC090958095709561957F4F8F4F9F4F1C
:100A400068AF79AF8AAF9BAF68AD79AD8AAD9BAD2A
:100A50004CA05DA06EA07FA0641575058605970566
:100A600008F0A1C0B5016F5F7F4F3B01660C771C9A
:100A70007F8E6E8EF301EE5EFC4F808191812C01A2
:100A8000612C712C68A179A18AA19BA1461A570AF1
:100A9000680A790A48AE59AE6AAE7BAE77FE0CC0E2
:100AA0007094609450944094411C511C611C711CC2
:100AB00048AE59AE6AAE7BAE48AC59AC6AAC7BACC2
:100AC0004216530664067506B8F0EE8DFF8DEE5E95
:100AD000FC4F80819181813C9D4570F464C0F1019F
:100AE000EE52FD4F10828AEB91E00E946D0982ED7B
:100AF00092E00E94E20850CFF101EE52FD4F1083C8
:100B00007FEF271A370A8114910409F445C06CADB0
:100B10007DAD6F5F7F4F7DAF6CAF71E08716910445
:100B200069F46CAD7DAD65307105B1F5ADA7BEA7BB
:100B30001DAE1CAE72E0872E912C2CC072E0871681
:100B4000910469F46CAD7DAD6A30710529F5BAABDD
:100B5000A9AB1DAE1CAEE3E08E2E912C1BC073E042
:100B60008716910469F46CAD7DAD6A307105A1F40E
:100B7000AFA7B8AB1DAE1CAE64E0862E912C0AC0A8
:100B800074E08716910441F46CAD7DAD643071055D
:100B900019F406C0A0E0B0E072E0A70EB11C81CE4F
:100BA000A8A7BBAB89CEF501EE0FFF1FEE5EFC4F91
:100BB000808191812C01612C712C68A179A18AA17D
:100BC0009BA1461A570A680A790A48AE59AE6AAE1E
:100BD0007BAE77FE0CC07094609450944094411C9E
:100BE000511C611C711C48AE59AE6AAE7BAE48AC5C
:100BF00059AC6AAC7BAC421653066406750608F025
:100C000050C0B5016F5F7F4FCB01880F991F9F8F39
:100C10008E8FFC01EE5EFC4F808191812C01612C56
:100C2000712C69A57AA58BA59CA5461A570A680A56
:100C3000790A48AE59AE6AAE7BAE77FE0CC07094AE
:100C4000609450944094411C511C611C711C48AE2E
:100C500059AE6AAE7BAE48AC59AC6AAC7BAC6CA109
:100C60007DA18EA19FA1461657066806790648F019
:100C7000EE8DFF8DEE5EFC4F80819181813C9D4524
:100C800080F0A160F101EE52FD4F00836FEF261A54
:100C9000360A8114910409F03ACF88248394912C68
:100CA00036CFF101EE52FD4F10828AEB91E02CAB72
:100CB0003DAB4EAB5FAB0E946D0982ED92E00E94AE
:100CC000E208212C312CA0E0B0E02CA93DA94EA9CE
:100CD0005FA919CF1F920F920FB60F9211242F9375
:100CE0003F938F939F93AF93BF938091FD06909115
:100CF000FE06A091FF06B09100073091FC0626E0A9
:100D0000230F2D3720F40296A11DB11D05C029E83F
:100D1000230F0396A11DB11D2093FC068093FD06B1
:100D20009093FE06A093FF06B09300078091010701
:100D300090910207A0910307B09104070196A11DAD
:100D4000B11D8093010790930207A0930307B0930E
:100D50000407BF91AF919F918F913F912F910F9079
:100D60000FBE0F901F9018951F920F920FB60F9203
:100D700011242F933F934F935F936F937F938F93A0
:100D80009F93AF93BF93EF93FF93E0910201F09194
:100D900003010995FF91EF91BF91AF919F918F91C1
:100DA0007F916F915F914F913F912F910F900FBE67
:100DB0000F901F9018951F920F920FB60F9211244B
:100DC0002F933F934F935F936F937F938F939F9353
:100DD000AF93BF93EF93FF93E0910001F091010176
:100DE0000995FF91EF91BF91AF919F918F917F9165
:100DF0006F915F914F913F912F910F900FBE0F9088
:100E00001F9018951F920F920FB60F9211242F93D7
:100E10003F934F935F936F937F938F939F93AF9382
:100E2000BF93EF93FF9385E097E00E94A601FF91A7
:100E3000EF91BF91AF919F918F917F916F915F9152
:100E40004F913F912F910F900FBE0F901F901895CB
:100E50001F920F920FB60F9211242F938F939F938F
:100E6000EF93FF93E0911507F09116078081E091D1
:100E70001B07F0911C0782FD12C0908180911E0714
:100E80008F5F8F7320911F07821751F0E0911E072B
:100E9000F0E0EB5FF84F958F80931E0701C08081D3
:100EA000FF91EF919F918F912F910F900FBE0F9017
:100EB0001F9018951F920F920FB60F9211242F9327
:100EC0003F934F935F936F937F938F939F93AF93D2
:100ED000BF93EF93FF938091B900887F803609F428
:100EE0009CC068F5883209F45BC090F4803109F445
:100EF00054C038F4882309F4F6C0883009F44DC092
:100F0000F6C0883109F44CC0803209F45DC0EFC0EE
:100F1000803409F468C048F4803309F455C088333C
:100F200009F0E5C08093A306D8C0803509F44FC00E
:100F3000883509F45DC0883409F0D9C0D6C0883935
:100F400009F4C7C0A8F4883709F467C038F48836B4
:100F500009F463C0803709F460C0C9C0883809F457
:100F6000B8C0803909F45FC0803809F0C0C05BC0E8
:100F7000803B09F486C038F4803A09F466C0883AA8
:100F800009F47FC0B4C0803C09F4A7C0883C09F4D0
:100F9000A4C0883B09F48AC0AAC08091C60610C0CC
:100FA0009091C5068091C406981770F5E091C5062A
:100FB00081E08E0F8093C506F0E0EC55F94F8081FB
:100FC0008093BB0085EC86C08093A3068EC0E09121
:100FD000C50681E08E0F8093C5068091BB00F0E0CE
:100FE000EC55F94F80839091C5068091C4066EC080
:100FF000E091C50681E08E0F8093C5068091BB000D
:10100000F0E0EC55F94F80838091E80681116DC0C6
:1010100081E08093E70684EA61C083E08093E9067B
:101020001092A206CFCF8091A206803208F051C064
:10103000E091A20681E08E0F8093A2068091BB0012
:10104000F0E0EE57F94F8083BDCF85EC8093BC0074
:101050001092E9068091A206803230F4E091A20657
:10106000F0E0EE57F94F10826091A20670E0E09137
:10107000EE06F091EF0682E896E009951092A2063E
:1010800036C084E08093E9061092810610928006B3
:10109000E091F006F091F1060995809180068111AA
:1010A00005C081E08093800610926006E091810681
:1010B00081E08E0F80938106F0E0E05AF94F808145
:1010C0008093BB009091810680918006981708F468
:1010D00079CF85E88093BC000AC085EC8093BC0082
:1010E0001092E90604C01092A3060E946602FF91C6
:1010F000EF91BF91AF919F918F917F916F915F9190
:101100004F913F912F910F900FBE0F901F90189508
:101110006115710579F0FB0101900020E9F7319725
:10112000AF01461B570BDC01ED91FC910280F3816E
:10113000E02D099480E090E00895CF93DF938FE84D
:1011400092E00E94E20880915E0690915F062091F5
:101150005C0630915D068217930731F12DE1289FDF
:10116000E001299FD00D1124C85EDB4F019664E198
:1011700070E00E946C0F90935F0680935E0620974C
:1011800099F089EA92E00E946D09E091A207F0913E
:10119000A3070280F381E02D4DE150E0BE0182EA19
:1011A00097E0DF91CF91099464E071E082EA97E0E3
:1011B000DF91CF910C94880861EC72E085E097E0B4
:1011C0000C948808CF93DF93BC0185E097E00E94E0
:1011D0008808EC010E94DC088C0F9D1FDF91CF91E5
:1011E00008958F929F92AF92BF920F931F93CF93C8
:1011F000DF93CDB7DEB7A1970FB6F894DEBF0FBE71
:10120000CDBF19A2423008F44AE08E010F5D1F4F96
:10121000842E912CA12CB12CA50194010E94800F49
:10122000E62FB901CA0101501109EA3014F4E05D5A
:1012300001C0E95CD801EC93232B242B252B61F70B
:10124000B80185E097E00E948808A1960FB6F8944F
:10125000DEBF0FBECDBFDF91CF911F910F91BF9029
:10126000AF909F908F900895E0910507F091060749
:101270000190F081E02D682F85E097E00994CF92EE
:10128000DF92EF92FF92CF93DF936C01990FEE08FC
:10129000FF08F7FE17C08DE20E943409EC016627B3
:1012A0007727CB016C197D098E099F094AE00E94BE
:1012B000F1088C0F9D1FDF91CF91FF90EF90DF9091
:1012C000CF9008954AE0C701B601DF91CF91FF901A
:1012D000EF90DF90CF900C94F108BC0185E097E08F
:1012E0000C9488088F929F92AF92BF92CF92DF9218
:1012F000EF92FF92CF93DF936B017C019B01AC01D6
:101300000E940912882319F064EC72E027C046019C
:101310005701E894B7F82FEF3FEF4FE75FE7C501BC
:10132000B4010E94091281110DC02FEF3FEF4FE76A
:101330005FE7C501B4010E94381018161CF468EC70
:1013400072E00CC02FEF3FEF4FE75FE4C701B6013B
:101350000E949711181684F46CEC72E085E097E017
:10136000DF91CF91FF90EF90DF90CF90BF90AF9043
:101370009F908F900C9488082FEF3FEF4FE75FEC22
:10138000C701B6010E94381087FDE6CF20E030E0AB
:10139000A901C701B6010E94381087FF09C08DE27C
:1013A0000E943409EC01F7FAF094F7F8F09402C0C7
:1013B000C0E0D0E02AE037ED43EA5BE3C701B601C5
:1013C0000E94CC0F4B015C010E94B6106B017C01A6
:1013D0000E94E5109B01AC01C501B4010E94CB0F36
:1013E0004B015C014AE0C701B6010E94F108C80F39
:1013F000D91F8EE20E943409C80FD91F20E030E0C7
:1014000040E251E4C501B4010E949C114B015C0112
:101410000E94B6106B01E12CF12C4AE0C701B60125
:101420000E94F108C80FD91FC701B6010E94E5103C
:101430009B01AC01C501B4010E94CB0F20E030E05C
:1014400040E251E40E949C110E94B61080E090E0BE
:101450004AE00E94F1088C0F9D1FDF91CF91FF9011
:10146000EF90DF90CF90BF90AF909F908F900895B6
:10147000CF93DF93BC0180E090E040E10E94F1084F
:10148000EC010E94DC088C0F9D1FDF91CF91089525
:101490008091AE07E091AF07F091B007F894918189
:1014A000982B91832281982F909529232283A2E063
:1014B000B0E01197F1F7218192239183A0E1B0E090
:1014C0001197F1F790817894E6E6F0E03197F1F723
:1014D000982381E009F480E008959091AE07E091AF
:1014E000AF07F091B007392F309580FF13C0F89403
:1014F0002281832F822382838181892B8183A0E1B2
:10150000B0E01197F1F78281982B928378948AE664
:1015100090E012C0F8942281832F822382838181FC
:10152000892B8183AEE7B0E01197F1F78281982B88
:101530009283789486E090E00197F1F70895EF9216
:10154000FF920F931F93CF93DF931F92CDB7DEB718
:10155000082F88E0E82EF12C11E081E0912F9023F4
:1015600009F480E069830E946D0A110F81E0E81A96
:10157000F1086981E114F10481F7611113C0F89455
:10158000E091AF07F091B00791818091AE0780950F
:1015900098239183E091AF07F091B007928189235E
:1015A000828378940F90DF91CF911F910F91FF90DC
:1015B000EF900895EF92FF920F931F93CF93DF93D5
:1015C0001F92CDB7DEB7182F60E085E599830E94A2
:1015D0009F0AE12E9981F92E8701085F1F4F60E075
:1015E000F70181917F010E949F0AE016F106B9F789
:1015F0000F90DF91CF911F910F91FF90EF90089581
:101600009091AE07E091AF07F091B007F894818117
:10161000292F20958223818378948DE7815009F1C9
:1016200030813923D9F3F8948281822382838181A6
:10163000892B81837894ACEBB3E01197F1F7F894A0
:10164000818128232183A8E8B0E01197F1F78081F8
:10165000982381E009F080E07894E0E3F3E03197AB
:10166000F1F7089590E0FC01E458FE4F3491FC013D
:10167000E255FE4F2491FC01E656FE4FE491EE2325
:1016800009F43BC0332339F1333091F038F4313071
:10169000A9F0323001F584B58F7D12C0373091F05A
:1016A0003830A1F03430B9F4809180008F7D03C0D0
:1016B000809180008F77809380000DC084B58F77F4
:1016C00084BD09C08091B0008F7703C08091B000C5
:1016D0008F7D8093B000F0E0EE0FFF1FEE58FE4FBD
:1016E000A591B4918FB7F894EC91611103C0209546
:1016F0002E2301C02E2B2C938FBF0895CF93DF9301
:1017000090E0FC01E255FE4F2491FC01E656FE4FAD
:101710008491882361F190E0880F991FFC01E859BA
:10172000FE4FC591D491FC01EE58FE4FA591B491A6
:10173000611109C09FB7F89488812095822388831E
:10174000EC912E230BC0623061F49FB7F89438817E
:10175000822F809583238883EC912E2B2C939FBF1F
:1017600006C08FB7F894E8812E2B28838FBFDF91B6
:10177000CF9108958F929F92AF92BF92CF92DF92B6
:10178000EF92FF926B017C010E9471034B015C019F
:10179000C114D104E104F104F1F00E947103DC01F1
:1017A000CB0188199909AA09BB09883E9340A10574
:1017B000B10570F321E0C21AD108E108F10888EE02
:1017C000880E83E0981EA11CB11CC114D104E10451
:1017D000F10419F7DDCFFF90EF90DF90CF90BF902D
:1017E000AF909F908F900895CF93DF93CDB7DEB7E2
:1017F000E8970FB6F894DEBF0FBECDBF789484B5DE
:10180000826084BD84B5816084BD85B5826085BDFC
:1018100085B5816085BD80916E00816080936E008A
:10182000109281008091810082608093810080917C
:10183000810081608093810080918000816080932D
:1018400080008091B10084608093B1008091B000ED
:1018500081608093B00080917A00846080937A00E8
:1018600080917A00826080937A0080917A008E7FE6
:1018700080937A0080917A00806880937A00109239
:10188000C10080E18093BA008CE091E09093F10672
:101890008093F00688E191E09093EF068093EE0646
:1018A0001092ED061092EC061092EB061092EA06EA
:1018B0001092E90681E08093E8061092E70661E065
:1018C00082E10E94320B61E083E10E94320B809141
:1018D000B9008E7F8093B9008091B9008D7F80938D
:1018E000B90080E28093B80085E48093BC008DE964
:1018F00098E09093F3068093F2068BEE92E090933B
:10190000F5068093F40660E082E00E947E0B61E0C1
:101910008DE00E947E0B06E011E0D801FD908D0164
:1019200061E08F2D0E94320B61E08F2D0E947E0BB3
:10193000B1E00E301B0789F786E993E0909301012F
:1019400080930001809169008C7F816080936900A1
:10195000E89A8FEB92EFACEFBFEF8093F80690938D
:10196000F906A093FA06B093FB06E0911507F091F3
:10197000160782E08083E0911107F0911207108230
:10198000E0911307F091140780E1808310921D0706
:10199000E0911907F0911A0786E08083E09117071C
:1019A000F0911807808180618083E0911707F091A2
:1019B0001807808188608083E0911707F0911807ED
:1019C000808180688083E0911707F09118078081FB
:1019D0008F7D808387EC91E00E94E2088E01065D96
:1019E0001F4F1E01E2E32E0E311CF7E0F00FFDAB9E
:1019F0007E012EE1E20EF11C88E08E0D8BAB4E01D4
:101A0000A2E08A0E911C2FB7F8948091FD06909168
:101A1000FE06A091FF06B09100072FBF4091F80687
:101A20005091F9066091FA067091FB06841B950BA4
:101A3000A60BB70B80349D40A340B10514F461E0C0
:101A400009C06091F70670E06F5F7F4F6170772784
:101A50006093F7068DE00E94320B68EE73E080E041
:101A600090E00E94BA0B8091F606082E000C990BAC
:101A700001966AE070E00E946C0F8093F606892B55
:101A800009F08CC088ED91E00E94E2088091BB07CC
:101A9000811104C00E94000B811115C01092B9077A
:101AA0001092BB071092BA0786EE91E00E94E208FE
:101AB0000E94DC081092B9071092BB071092BA0777
:101AC000E9EBF7E058C060E080EF0E949F0ACC2469
:101AD000C394B12CA12CDD24D3940E94480A88AF72
:101AE0000E94480A98AD913019F48130D1F437C082
:101AF000EB2DF0E098131FC08091B907D81640F481
:101B0000DF01A255B84F13968C918C2151F402C07D
:101B1000D81639F090E028E02D1560F0D092BA0781
:101B200009C0EB2DF0E0E255F84F83818C298383C7
:101B300091E008C0AD2CE255F84F23818C2D8095A3
:101B400082238383892F0E946D0AD394CC0C19F4CD
:101B5000B394CC24C39487E08B1508F0BECFA0E4E7
:101B6000AD1508F09BCFA092B907A1101AC081E073
:101B70008093BB0716C01292B7E0E13BFB07D9F791
:101B80006AEF70E080E090E00E94BA0B07C089A97C
:101B9000E817D1F18BEF91E00E94E2080E94300239
:101BA00032CF8091B107882309F478CFA1EBB7E059
:101BB0006801F8018D918193E215F305D9F787E863
:101BC00092E00E946D095801E8E0E00FEAAB60E2A4
:101BD00085E097E00E94C701F50161915F0170E027
:101BE00080E090E040E10E94F108FAA9FA11EFCFFD
:101BF000D801E0E02DA92A1751F28D91E827F0E0F5
:101C0000E859FF4FE491F6CF0E94DC088AA58232A2
:101C100071F0883249F0803181F48DE092E00E94C9
:101C2000E208772473940CC08EE192E002C08FE248
:101C300092E00E94E208712C03C08FE392E0ACCFE7
:101C40000E94000BC8010E94DA0A61E084E40E944D
:101C50009F0A68EE73E080E090E00E94BA0B0E9459
:101C6000000BB82EC8010E94DA0A60E08EEB0E94D9
:101C70009F0A86E692E00E946D096B2D70E080E07D
:101C800090E040E10E94F1088EE692E00E946D092A
:101C90005701270129E02E0D2CAB28E030E091E020
:101CA000612C2EAB3FAB98AF0E94480A2EA93FA9EA
:101CB00098AD8111692A990F2150310991F7D2010C
:101CC0006D922D01662D70E080E090E040E10E9471
:101CD000F1088EE692E00E946D092CA92411DDCF57
:101CE00080E792E00E946D09D701E0E08BA98A1796
:101CF00039F06D91E627F0E0E859FF4FE491F6CF17
:101D00006E2F70E080E090E040E10E94F1080E94B8
:101D1000DC086F8D70E0762F66278E8D682B77201C
:101D200089F083E0660F771F8A95E1F78DA18031F6
:101D3000A9F42CA18CE090E0821B9109607F680FD0
:101D4000791F0CC08AA1807611F4687F07C08032A9
:101D500011F46C7F03C0803409F46E7F072E000CF1
:101D6000880B990B0E94E71020E030E040E85DE32B
:101D70000E949C112B013C0186E792E00E946D09B4
:101D8000C301B2010E94720987EB91E00E94E20850
:101D90000E94DC0882E089838CE1D4011D928A953F
:101DA000E9F7F401D6018D916D018193BAA9BC11B7
:101DB000F9CFFE013A96D5018D915D018193BBA9C2
:101DC000BA11F9CF20E030E048EC52E4C301B2018F
:101DD0000E949C110E94AF107D8B6C8BCE010196EE
:101DE0000E94BD02DBCE109208071092070788EE12
:101DF00093E0A0E0B0E08093090790930A07A093D6
:101E00000B07B0930C0722E131E0309306072093D3
:101E1000050725EC30E0309312072093110724ECDE
:101E200030E0309314072093130720EC30E0309318
:101E300016072093150721EC30E030931807209304
:101E4000170722EC30E030931A072093190726EC8D
:101E500030E030931C0720931B0710921E0710924E
:101E60001F0710922007109221071092A5071092C9
:101E7000A4078093A6079093A707A093A807B09301
:101E8000A90782E291E09093A3078093A20760E004
:101E900083E00E947E0BE1EBF1E0E491E093AE077A
:101EA000EDE9F1E0E491F0E0EE0FFF1FE057FE4FA7
:101EB000859194919093B0078093AF071092B907E2
:101EC0001092BB071092BA07E9EBF7E0129287E095
:101ED000E13BF807D9F7089597FB072E16F4009415
:101EE00007D077FD09D00E94B10F07FC05D03EF462
:101EF000909581959F4F0895709561957F4F0895B6
:101F0000A1E21A2EAA1BBB1BFD010DC0AA1FBB1FFD
:101F1000EE1FFF1FA217B307E407F50720F0A21B6F
:101F2000B30BE40BF50B661F771F881F991F1A94DC
:101F300069F760957095809590959B01AC01BD0106
:101F4000CF010895A29FB001B39FC001A39F700D60
:101F5000811D1124911DB29F700D811D1124911DB1
:101F60000895AA1BBB1B51E107C0AA1FBB1FA617E0
:101F7000B70710F0A61BB70B881F991F5A95A9F732
:101F800080959095BC01CD010895EE0FFF1F05903F
:101F9000F491E02D09945058BB27AA270E94E30F23
:101FA0000C945D110E944F1138F00E94561120F0E0
:101FB00039F49F3F19F426F40C944C110EF4E0957B
:101FC000E7FB0C944611E92F0E946E1158F3BA17E3
:101FD000620773078407950720F079F4A6F50C943F
:101FE00090110EF4E0950B2EBA2FA02D0B01B90124
:101FF00090010C01CA01A0011124FF27591B99F07F
:10200000593F50F4503E68F11A16F040A22F232F8A
:10201000342F4427585FF3CF469537952795A795DA
:10202000F0405395C9F77EF41F16BA0B620B730B81
:10203000840BBAF09150A1F0FF0FBB1F661F771FF2
:10204000881FC2F70EC0BA0F621F731F841F48F4A7
:10205000879577956795B795F7959E3F08F0B0CF30
:102060009395880F08F09927EE0F97958795089517
:102070000E94221108F481E008950E9451100C94EE
:102080005D110E94561158F00E944F1140F029F442
:102090005F3F29F00C94461151110C9491110C944E
:1020A0004C110E946E1168F39923B1F3552391F3FB
:1020B000951B550BBB27AA2762177307840738F0B7
:1020C0009F5F5F4F220F331F441FAA1FA9F335D014
:1020D0000E2E3AF0E0E832D091505040E695001CC8
:1020E000CAF72BD0FE2F29D0660F771F881FBB1F82
:1020F000261737074807AB07B0E809F0BB0B802D60
:10210000BF01FF2793585F4F3AF09E3F510578F08B
:102110000C9446110C9491115F3FE4F3983ED4F374
:10212000869577956795B795F7959F5FC9F7880F5F
:10213000911D9695879597F90895E1E0660F771FB1
:10214000881FBB1F621773078407BA0720F0621B42
:10215000730B840BBA0BEE1F88F7E09508950E946D
:10216000B6106894B1110C94911108950E947611E3
:1021700088F09F5798F0B92F9927B751B0F0E1F048
:10218000660F771F881F991F1AF0BA95C9F714C0F8
:10219000B13091F00E949011B1E008950C9490112B
:1021A000672F782F8827B85F39F0B93FCCF3869531
:1021B00077956795B395D9F73EF49095809570958E
:1021C00061957F4F8F4F9F4F0895E89409C097FB0B
:1021D0003EF490958095709561957F4F8F4F9F4FFE
:1021E0009923A9F0F92F96E9BB279395F695879542
:1021F00077956795B795F111F8CFFAF4BB0F11F405
:1022000060FF1BC06F5F7F4F8F4F9F4F16C08823AB
:1022100011F096E911C0772321F09EE8872F762FE1
:1022200005C0662371F096E8862F70E060E02AF022
:102230009A95660F771F881FDAF7880F969587950E
:1022400097F90895990F0008550FAA0BE0E8FEEFE3
:1022500016161706E807F907C0F012161306E4076A
:10226000F50798F0621B730B840B950B39F40A2663
:1022700061F0232B242B252B21F408950A2609F441
:10228000A140A6958FEF811D811D089597F99F6745
:1022900080E870E060E008959FEF80EC08950024EE
:1022A0000A941616170618060906089500240A94BB
:1022B00012161306140605060895092E0394000C41
:1022C00011F4882352F0BB0F40F4BF2B11F460FFD0
:1022D00004C06F5F7F4F8F4F9F4F089557FD9058F9
:1022E000440F551F59F05F3F71F04795880F97FBDA
:1022F000991F61F09F3F79F0879508951216130694
:102300001406551FF2CF4695F1DF08C016161706C2
:102310001806991FF1CF86957105610508940895F7
:10232000E894BB2766277727CB0197F908950E9489
:10233000221108F48FEF08950E94AF110C945D11E3
:102340000E944F1138F00E94561120F0952311F091
:102350000C9446110C944C1111240C9491110E9470
:102360006E1170F3959FC1F3950F50E0551F629F5A
:10237000F001729FBB27F00DB11D639FAA27F00DDE
:10238000B11DAA1F649F6627B00DA11D661F829F05
:102390002227B00DA11D621F739FB00DA11D621FEA
:1023A000839FA00D611D221F749F3327A00D611D07
:1023B000231F849F600D211D822F762F6A2F1124E9
:1023C0009F5750409AF0F1F088234AF0EE0FFF1F1C
:1023D000BB1F661F771F881F91505040A9F79E3F73
:1023E000510580F00C9446110C9491115F3FE4F379
:1023F000983ED4F3869577956795B795F795E795C9
:102400009F5FC1F7FE2B880F911D9695879597F9D1
:1024100008950E942211880B990B089581E090E0A5
:0A242000F8940C941312F894FFCF07
:10242A0042014201000005060708090A0B0C0000D8
:10243A000000C701430190016E0182010E020000F3
:10244A000000AC0298025E024A023B023A0272653E
:10245A0063656976654576656E7446726F6D493255
:10246A00434D6173746572200073657452656C61C3
:10247A0079537461746528002C0072656C61792047
:10248A00696420696E76616C696400726563656966
:10249A007665524650726F746F636F6C2800202005
:1024AA0073746172743D002020636865636B737591
:1024BA006D3D0020206F626A65637469643D002087
:1024CA00207472616D653D00202074656D706572BF
:1024DA0061747572653D00B0430020207472756E98
:1024EA0063617465643D00736574757028292061A1
:1024FA006368696576656400726561644F6E6557E5
:10250A0069726528290020204E6F206D6F72652040
:10251A006164647265737365732E00435243206964
:10252A0073206E6F742076616C69642100202043E9
:10253A00686970203D2044533138533230002020DE
:10254A0043686970203D20445331384232300020BC
:10255A002043686970203D204453313832320044A8
:10256A006576696365206973206E6F742061204403
:10257A005331387832302066616D696C7920646530
:10258A00766963652E00202044617461203D200035
:10259A00204352433D00202054656D70657261747A
:1025AA00757265203D20002020524F4D203D006469
:1025BA006174615265717565737446726F6D4932E3
:1025CA00434D617374657220007265717565737429
:1025DA004576656E742829202D3E20646174610A4F
:1025EA00000D0A006E616E00696E66006F76660005
:00000001FF
